{
  "contractName": "CredentialVerificationV3",
  "abi": [
    {
      "inputs": [],
      "stateMutability": "nonpayable",
      "type": "constructor"
    },
    {
      "anonymous": false,
      "inputs": [
        {
          "indexed": false,
          "internalType": "uint256",
          "name": "credentialId",
          "type": "uint256"
        },
        {
          "indexed": false,
          "internalType": "address",
          "name": "user",
          "type": "address"
        }
      ],
      "name": "CredentialAccessGranted",
      "type": "event"
    },
    {
      "anonymous": false,
      "inputs": [
        {
          "indexed": false,
          "internalType": "uint256",
          "name": "credentialId",
          "type": "uint256"
        },
        {
          "indexed": false,
          "internalType": "address",
          "name": "user",
          "type": "address"
        }
      ],
      "name": "CredentialAccessRevoked",
      "type": "event"
    },
    {
      "anonymous": false,
      "inputs": [
        {
          "indexed": false,
          "internalType": "uint256",
          "name": "credentialId",
          "type": "uint256"
        }
      ],
      "name": "CredentialRegistered",
      "type": "event"
    },
    {
      "anonymous": false,
      "inputs": [
        {
          "indexed": false,
          "internalType": "uint256",
          "name": "credentialId",
          "type": "uint256"
        }
      ],
      "name": "CredentialUpdated",
      "type": "event"
    },
    {
      "inputs": [],
      "name": "admin",
      "outputs": [
        {
          "internalType": "address",
          "name": "",
          "type": "address"
        }
      ],
      "stateMutability": "view",
      "type": "function",
      "constant": true
    },
    {
      "inputs": [
        {
          "internalType": "address",
          "name": "",
          "type": "address"
        },
        {
          "internalType": "uint256",
          "name": "",
          "type": "uint256"
        }
      ],
      "name": "credentialAccess",
      "outputs": [
        {
          "internalType": "bool",
          "name": "",
          "type": "bool"
        }
      ],
      "stateMutability": "view",
      "type": "function",
      "constant": true
    },
    {
      "inputs": [],
      "name": "credentialCounter",
      "outputs": [
        {
          "internalType": "uint256",
          "name": "",
          "type": "uint256"
        }
      ],
      "stateMutability": "view",
      "type": "function",
      "constant": true
    },
    {
      "inputs": [
        {
          "internalType": "uint256",
          "name": "",
          "type": "uint256"
        }
      ],
      "name": "credentials",
      "outputs": [
        {
          "internalType": "uint256",
          "name": "id",
          "type": "uint256"
        },
        {
          "internalType": "string",
          "name": "credentialType",
          "type": "string"
        },
        {
          "internalType": "string",
          "name": "degreeName",
          "type": "string"
        },
        {
          "internalType": "string",
          "name": "university",
          "type": "string"
        },
        {
          "internalType": "string",
          "name": "graduationDate",
          "type": "string"
        },
        {
          "internalType": "string",
          "name": "licenseNumber",
          "type": "string"
        },
        {
          "internalType": "bool",
          "name": "isValid",
          "type": "bool"
        },
        {
          "internalType": "address",
          "name": "issuer",
          "type": "address"
        },
        {
          "internalType": "string",
          "name": "permanentAddress",
          "type": "string"
        },
        {
          "internalType": "string",
          "name": "doctorName",
          "type": "string"
        }
      ],
      "stateMutability": "view",
      "type": "function",
      "constant": true
    },
    {
      "inputs": [
        {
          "internalType": "address",
          "name": "",
          "type": "address"
        }
      ],
      "name": "registeredAddresses",
      "outputs": [
        {
          "internalType": "bool",
          "name": "",
          "type": "bool"
        }
      ],
      "stateMutability": "view",
      "type": "function",
      "constant": true
    },
    {
      "inputs": [
        {
          "internalType": "address",
          "name": "user",
          "type": "address"
        }
      ],
      "name": "registerAddress",
      "outputs": [],
      "stateMutability": "nonpayable",
      "type": "function"
    },
    {
      "inputs": [
        {
          "internalType": "address",
          "name": "user",
          "type": "address"
        }
      ],
      "name": "unregisterAddress",
      "outputs": [],
      "stateMutability": "nonpayable",
      "type": "function"
    },
    {
      "inputs": [
        {
          "internalType": "string",
          "name": "credentialType",
          "type": "string"
        },
        {
          "internalType": "string",
          "name": "degreeName",
          "type": "string"
        },
        {
          "internalType": "string",
          "name": "university",
          "type": "string"
        },
        {
          "internalType": "string",
          "name": "graduationDate",
          "type": "string"
        },
        {
          "internalType": "string",
          "name": "licenseNumber",
          "type": "string"
        },
        {
          "internalType": "string",
          "name": "permanentAddress",
          "type": "string"
        },
        {
          "internalType": "string",
          "name": "doctorName",
          "type": "string"
        }
      ],
      "name": "registerCredential",
      "outputs": [
        {
          "internalType": "uint256",
          "name": "",
          "type": "uint256"
        }
      ],
      "stateMutability": "nonpayable",
      "type": "function"
    },
    {
      "inputs": [
        {
          "internalType": "uint256",
          "name": "credentialId",
          "type": "uint256"
        },
        {
          "internalType": "bool",
          "name": "isValid",
          "type": "bool"
        }
      ],
      "name": "updateCredentialValidity",
      "outputs": [],
      "stateMutability": "nonpayable",
      "type": "function"
    },
    {
      "inputs": [
        {
          "internalType": "uint256",
          "name": "credentialId",
          "type": "uint256"
        },
        {
          "internalType": "address",
          "name": "user",
          "type": "address"
        }
      ],
      "name": "grantCredentialAccess",
      "outputs": [],
      "stateMutability": "nonpayable",
      "type": "function"
    },
    {
      "inputs": [
        {
          "internalType": "uint256",
          "name": "credentialId",
          "type": "uint256"
        },
        {
          "internalType": "address",
          "name": "user",
          "type": "address"
        }
      ],
      "name": "revokeCredentialAccess",
      "outputs": [],
      "stateMutability": "nonpayable",
      "type": "function"
    },
    {
      "inputs": [
        {
          "internalType": "string",
          "name": "licenseNumber",
          "type": "string"
        }
      ],
      "name": "verifyLicense",
      "outputs": [
        {
          "internalType": "bool",
          "name": "",
          "type": "bool"
        }
      ],
      "stateMutability": "view",
      "type": "function",
      "constant": true
    },
    {
      "inputs": [
        {
          "internalType": "address",
          "name": "institution",
          "type": "address"
        }
      ],
      "name": "getAllCertificates",
      "outputs": [
        {
          "internalType": "uint256[]",
          "name": "",
          "type": "uint256[]"
        }
      ],
      "stateMutability": "view",
      "type": "function",
      "constant": true
    }
  ],
  "bytecode": "0x608060405234801561001057600080fd5b5033600460006101000a81548173ffffffffffffffffffffffffffffffffffffffff021916908373ffffffffffffffffffffffffffffffffffffffff160217905550611f5d806100616000396000f3fe608060405234801561001057600080fd5b50600436106100ce5760003560e01c8063ac6cfb851161008c578063e0574e3f11610066578063e0574e3f14610221578063ea7233431461025a578063ec1fe61114610276578063f851a440146102a6576100ce565b8063ac6cfb85146101a5578063c189b5c7146101d5578063c288e9b914610205576100ce565b8062f7c5be146100d357806325d1d655146100ef57806339bd38871461010b57806376b22eac1461013b578063a8a540081461016b578063aae0642514610187575b600080fd5b6100ed60048036038101906100e89190611209565b6102c4565b005b6101096004803603810190610104919061126c565b6103af565b005b610125600480360381019061012091906113f2565b6104fa565b6040516101329190611456565b60405180910390f35b61015560048036038101906101509190611209565b61058b565b6040516101629190611456565b60405180910390f35b61018560048036038101906101809190611209565b6105ab565b005b61018f610695565b60405161019c9190611480565b60405180910390f35b6101bf60048036038101906101ba919061149b565b61069b565b6040516101cc9190611456565b60405180910390f35b6101ef60048036038101906101ea91906114db565b6106ca565b6040516101fc9190611480565b60405180910390f35b61021f600480360381019061021a919061126c565b610944565b005b61023b60048036038101906102369190611641565b610a86565b6040516102519a999897969594939291906116fc565b60405180910390f35b610274600480360381019061026f91906117f5565b610ebf565b005b610290600480360381019061028b9190611209565b610fb3565b60405161029d91906118f3565b60405180910390f35b6102ae611171565b6040516102bb9190611915565b60405180910390f35b600460009054906101000a900473ffffffffffffffffffffffffffffffffffffffff1673ffffffffffffffffffffffffffffffffffffffff163373ffffffffffffffffffffffffffffffffffffffff1614610354576040517f08c379a000000000000000000000000000000000000000000000000000000000815260040161034b906119a2565b60405180910390fd5b6000600160008373ffffffffffffffffffffffffffffffffffffffff1673ffffffffffffffffffffffffffffffffffffffff16815260200190815260200160002060006101000a81548160ff02191690831515021790555050565b813373ffffffffffffffffffffffffffffffffffffffff1660008083815260200190815260200160002060060160019054906101000a900473ffffffffffffffffffffffffffffffffffffffff1673ffffffffffffffffffffffffffffffffffffffff1614610453576040517f08c379a000000000000000000000000000000000000000000000000000000000815260040161044a90611a34565b60405180910390fd5b6001600260008473ffffffffffffffffffffffffffffffffffffffff1673ffffffffffffffffffffffffffffffffffffffff168152602001908152602001600020600085815260200190815260200160002060006101000a81548160ff0219169083151502179055507f22187fbb30bca5887820577428c08b2e0016854c629592d3c1e355945480e35183836040516104ed929190611a54565b60405180910390a1505050565b600080600190505b60035481116105805782805190602001206000808381526020019081526020016000206005016040516105359190611b80565b60405180910390200361056d5760008082815260200190815260200160002060060160009054906101000a900460ff16915050610586565b808061057890611bc6565b915050610502565b50600090505b919050565b60016020528060005260406000206000915054906101000a900460ff1681565b600460009054906101000a900473ffffffffffffffffffffffffffffffffffffffff1673ffffffffffffffffffffffffffffffffffffffff163373ffffffffffffffffffffffffffffffffffffffff161461063b576040517f08c379a0000000000000000000000000000000000000000000000000000000008152600401610632906119a2565b60405180910390fd5b60018060008373ffffffffffffffffffffffffffffffffffffffff1673ffffffffffffffffffffffffffffffffffffffff16815260200190815260200160002060006101000a81548160ff02191690831515021790555050565b60035481565b60026020528160005260406000206020528060005260406000206000915091509054906101000a900460ff1681565b6000600160003373ffffffffffffffffffffffffffffffffffffffff1673ffffffffffffffffffffffffffffffffffffffff16815260200190815260200160002060009054906101000a900460ff16610758576040517f08c379a000000000000000000000000000000000000000000000000000000000815260040161074f90611c5a565b60405180910390fd5b6003600081548092919061076b90611bc6565b9190505550600060405180610140016040528060035481526020018a81526020018981526020018881526020018781526020018681526020016001151581526020013373ffffffffffffffffffffffffffffffffffffffff1681526020018581526020018481525090508060008060035481526020019081526020016000206000820151816000015560208201518160010190816108099190611e26565b50604082015181600201908161081f9190611e26565b5060608201518160030190816108359190611e26565b50608082015181600401908161084b9190611e26565b5060a08201518160050190816108619190611e26565b5060c08201518160060160006101000a81548160ff02191690831515021790555060e08201518160060160016101000a81548173ffffffffffffffffffffffffffffffffffffffff021916908373ffffffffffffffffffffffffffffffffffffffff1602179055506101008201518160070190816108df9190611e26565b506101208201518160080190816108f69190611e26565b509050507f1cfbb42be00f2b4701ad5f70e59f2509b5764256ea7b775d9f3dd5b4efd7183a60035460405161092b9190611480565b60405180910390a1600354915050979650505050505050565b813373ffffffffffffffffffffffffffffffffffffffff1660008083815260200190815260200160002060060160019054906101000a900473ffffffffffffffffffffffffffffffffffffffff1673ffffffffffffffffffffffffffffffffffffffff16146109e8576040517f08c379a00000000000000000000000000000000000000000000000000000000081526004016109df90611a34565b60405180910390fd5b600260008373ffffffffffffffffffffffffffffffffffffffff1673ffffffffffffffffffffffffffffffffffffffff168152602001908152602001600020600084815260200190815260200160002060006101000a81549060ff02191690557fc3d60fd376160dbf139041d7a7c2b76096af00485d79ab1f8da051c59030759d8383604051610a79929190611a54565b60405180910390a1505050565b6000602052806000526040600020600091509050806000015490806001018054610aaf90611aac565b80601f0160208091040260200160405190810160405280929190818152602001828054610adb90611aac565b8015610b285780601f10610afd57610100808354040283529160200191610b28565b820191906000526020600020905b815481529060010190602001808311610b0b57829003601f168201915b505050505090806002018054610b3d90611aac565b80601f0160208091040260200160405190810160405280929190818152602001828054610b6990611aac565b8015610bb65780601f10610b8b57610100808354040283529160200191610bb6565b820191906000526020600020905b815481529060010190602001808311610b9957829003601f168201915b505050505090806003018054610bcb90611aac565b80601f0160208091040260200160405190810160405280929190818152602001828054610bf790611aac565b8015610c445780601f10610c1957610100808354040283529160200191610c44565b820191906000526020600020905b815481529060010190602001808311610c2757829003601f168201915b505050505090806004018054610c5990611aac565b80601f0160208091040260200160405190810160405280929190818152602001828054610c8590611aac565b8015610cd25780601f10610ca757610100808354040283529160200191610cd2565b820191906000526020600020905b815481529060010190602001808311610cb557829003601f168201915b505050505090806005018054610ce790611aac565b80601f0160208091040260200160405190810160405280929190818152602001828054610d1390611aac565b8015610d605780601f10610d3557610100808354040283529160200191610d60565b820191906000526020600020905b815481529060010190602001808311610d4357829003601f168201915b5050505050908060060160009054906101000a900460ff16908060060160019054906101000a900473ffffffffffffffffffffffffffffffffffffffff1690806007018054610dae90611aac565b80601f0160208091040260200160405190810160405280929190818152602001828054610dda90611aac565b8015610e275780601f10610dfc57610100808354040283529160200191610e27565b820191906000526020600020905b815481529060010190602001808311610e0a57829003601f168201915b505050505090806008018054610e3c90611aac565b80601f0160208091040260200160405190810160405280929190818152602001828054610e6890611aac565b8015610eb55780601f10610e8a57610100808354040283529160200191610eb5565b820191906000526020600020905b815481529060010190602001808311610e9857829003601f168201915b505050505090508a565b600160003373ffffffffffffffffffffffffffffffffffffffff1673ffffffffffffffffffffffffffffffffffffffff16815260200190815260200160002060009054906101000a900460ff16610f4b576040517f08c379a0000000000000000000000000000000000000000000000000000000008152600401610f4290611c5a565b60405180910390fd5b8060008084815260200190815260200160002060060160006101000a81548160ff0219169083151502179055507faf546e6879a109130d587e5ae972d905c080f1395212533857157316489f2c3482604051610fa79190611480565b60405180910390a15050565b6060600060035467ffffffffffffffff811115610fd357610fd26112c7565b5b6040519080825280602002602001820160405280156110015781602001602082028036833780820191505090505b509050600080600190505b60035481116110bf578473ffffffffffffffffffffffffffffffffffffffff1660008083815260200190815260200160002060060160019054906101000a900473ffffffffffffffffffffffffffffffffffffffff1673ffffffffffffffffffffffffffffffffffffffff16036110ac578083838151811061109157611090611ef8565b5b60200260200101818152505081806110a890611bc6565b9250505b80806110b790611bc6565b91505061100c565b5060008167ffffffffffffffff8111156110dc576110db6112c7565b5b60405190808252806020026020018201604052801561110a5781602001602082028036833780820191505090505b50905060005b828110156111655783818151811061112b5761112a611ef8565b5b602002602001015182828151811061114657611145611ef8565b5b602002602001018181525050808061115d90611bc6565b915050611110565b50809350505050919050565b600460009054906101000a900473ffffffffffffffffffffffffffffffffffffffff1681565b6000604051905090565b600080fd5b600080fd5b600073ffffffffffffffffffffffffffffffffffffffff82169050919050565b60006111d6826111ab565b9050919050565b6111e6816111cb565b81146111f157600080fd5b50565b600081359050611203816111dd565b92915050565b60006020828403121561121f5761121e6111a1565b5b600061122d848285016111f4565b91505092915050565b6000819050919050565b61124981611236565b811461125457600080fd5b50565b60008135905061126681611240565b92915050565b60008060408385031215611283576112826111a1565b5b600061129185828601611257565b92505060206112a2858286016111f4565b9150509250929050565b600080fd5b600080fd5b6000601f19601f8301169050919050565b7f4e487b7100000000000000000000000000000000000000000000000000000000600052604160045260246000fd5b6112ff826112b6565b810181811067ffffffffffffffff8211171561131e5761131d6112c7565b5b80604052505050565b6000611331611197565b905061133d82826112f6565b919050565b600067ffffffffffffffff82111561135d5761135c6112c7565b5b611366826112b6565b9050602081019050919050565b82818337600083830152505050565b600061139561139084611342565b611327565b9050828152602081018484840111156113b1576113b06112b1565b5b6113bc848285611373565b509392505050565b600082601f8301126113d9576113d86112ac565b5b81356113e9848260208601611382565b91505092915050565b600060208284031215611408576114076111a1565b5b600082013567ffffffffffffffff811115611426576114256111a6565b5b611432848285016113c4565b91505092915050565b60008115159050919050565b6114508161143b565b82525050565b600060208201905061146b6000830184611447565b92915050565b61147a81611236565b82525050565b60006020820190506114956000830184611471565b92915050565b600080604083850312156114b2576114b16111a1565b5b60006114c0858286016111f4565b92505060206114d185828601611257565b9150509250929050565b600080600080600080600060e0888a0312156114fa576114f96111a1565b5b600088013567ffffffffffffffff811115611518576115176111a6565b5b6115248a828b016113c4565b975050602088013567ffffffffffffffff811115611545576115446111a6565b5b6115518a828b016113c4565b965050604088013567ffffffffffffffff811115611572576115716111a6565b5b61157e8a828b016113c4565b955050606088013567ffffffffffffffff81111561159f5761159e6111a6565b5b6115ab8a828b016113c4565b945050608088013567ffffffffffffffff8111156115cc576115cb6111a6565b5b6115d88a828b016113c4565b93505060a088013567ffffffffffffffff8111156115f9576115f86111a6565b5b6116058a828b016113c4565b92505060c088013567ffffffffffffffff811115611626576116256111a6565b5b6116328a828b016113c4565b91505092959891949750929550565b600060208284031215611657576116566111a1565b5b600061166584828501611257565b91505092915050565b600081519050919050565b600082825260208201905092915050565b60005b838110156116a857808201518184015260208101905061168d565b60008484015250505050565b60006116bf8261166e565b6116c98185611679565b93506116d981856020860161168a565b6116e2816112b6565b840191505092915050565b6116f6816111cb565b82525050565b600061014082019050611712600083018d611471565b8181036020830152611724818c6116b4565b90508181036040830152611738818b6116b4565b9050818103606083015261174c818a6116b4565b9050818103608083015261176081896116b4565b905081810360a083015261177481886116b4565b905061178360c0830187611447565b61179060e08301866116ed565b8181036101008301526117a381856116b4565b90508181036101208301526117b881846116b4565b90509b9a5050505050505050505050565b6117d28161143b565b81146117dd57600080fd5b50565b6000813590506117ef816117c9565b92915050565b6000806040838503121561180c5761180b6111a1565b5b600061181a85828601611257565b925050602061182b858286016117e0565b9150509250929050565b600081519050919050565b600082825260208201905092915050565b6000819050602082019050919050565b61186a81611236565b82525050565b600061187c8383611861565b60208301905092915050565b6000602082019050919050565b60006118a082611835565b6118aa8185611840565b93506118b583611851565b8060005b838110156118e65781516118cd8882611870565b97506118d883611888565b9250506001810190506118b9565b5085935050505092915050565b6000602082019050818103600083015261190d8184611895565b905092915050565b600060208201905061192a60008301846116ed565b92915050565b7f4f6e6c792061646d696e2063616e20706572666f726d2074686973206163746960008201527f6f6e000000000000000000000000000000000000000000000000000000000000602082015250565b600061198c602283611679565b915061199782611930565b604082019050919050565b600060208201905081810360008301526119bb8161197f565b9050919050565b7f4f6e6c79206973737565722063616e20706572666f726d20746869732061637460008201527f696f6e0000000000000000000000000000000000000000000000000000000000602082015250565b6000611a1e602383611679565b9150611a29826119c2565b604082019050919050565b60006020820190508181036000830152611a4d81611a11565b9050919050565b6000604082019050611a696000830185611471565b611a7660208301846116ed565b9392505050565b7f4e487b7100000000000000000000000000000000000000000000000000000000600052602260045260246000fd5b60006002820490506001821680611ac457607f821691505b602082108103611ad757611ad6611a7d565b5b50919050565b600081905092915050565b60008190508160005260206000209050919050565b60008154611b0a81611aac565b611b148186611add565b94506001821660008114611b2f5760018114611b4457611b77565b60ff1983168652811515820286019350611b77565b611b4d85611ae8565b60005b83811015611b6f57815481890152600182019150602081019050611b50565b838801955050505b50505092915050565b6000611b8c8284611afd565b915081905092915050565b7f4e487b7100000000000000000000000000000000000000000000000000000000600052601160045260246000fd5b6000611bd182611236565b91507fffffffffffffffffffffffffffffffffffffffffffffffffffffffffffffffff8203611c0357611c02611b97565b5b600182019050919050565b7f556e617574686f72697a65642061646472657373000000000000000000000000600082015250565b6000611c44601483611679565b9150611c4f82611c0e565b602082019050919050565b60006020820190508181036000830152611c7381611c37565b9050919050565b60008190508160005260206000209050919050565b60006020601f8301049050919050565b600082821b905092915050565b600060088302611cdc7fffffffffffffffffffffffffffffffffffffffffffffffffffffffffffffffff82611c9f565b611ce68683611c9f565b95508019841693508086168417925050509392505050565b6000819050919050565b6000611d23611d1e611d1984611236565b611cfe565b611236565b9050919050565b6000819050919050565b611d3d83611d08565b611d51611d4982611d2a565b848454611cac565b825550505050565b600090565b611d66611d59565b611d71818484611d34565b505050565b5b81811015611d9557611d8a600082611d5e565b600181019050611d77565b5050565b601f821115611dda57611dab81611c7a565b611db484611c8f565b81016020851015611dc3578190505b611dd7611dcf85611c8f565b830182611d76565b50505b505050565b600082821c905092915050565b6000611dfd60001984600802611ddf565b1980831691505092915050565b6000611e168383611dec565b9150826002028217905092915050565b611e2f8261166e565b67ffffffffffffffff811115611e4857611e476112c7565b5b611e528254611aac565b611e5d828285611d99565b600060209050601f831160018114611e905760008415611e7e578287015190505b611e888582611e0a565b865550611ef0565b601f198416611e9e86611c7a565b60005b82811015611ec657848901518255600182019150602085019450602081019050611ea1565b86831015611ee35784890151611edf601f891682611dec565b8355505b6001600288020188555050505b505050505050565b7f4e487b7100000000000000000000000000000000000000000000000000000000600052603260045260246000fdfea2646970667358221220cf5b7528c663183ebcbf8ca211a6037b1b0bfbbb8367c9b3a7c5c7807f311fac64736f6c63430008130033",
  "immutableReferences": {},
  "source": "// SPDX-License-Identifier: MIT\r\npragma solidity ^0.8.0;\r\n\r\ncontract CredentialVerificationV3 {\r\n    struct Credential {\r\n        uint256 id;\r\n        string credentialType;\r\n        string degreeName;\r\n        string university;\r\n        string graduationDate;\r\n        string licenseNumber;\r\n        bool isValid;\r\n        address issuer;\r\n        string permanentAddress;\r\n        string doctorName; // Added doctor's name field\r\n        // Add other important details as needed\r\n    }\r\n\r\n    mapping(uint256 => Credential) public credentials;\r\n    mapping(address => bool) public registeredAddresses;\r\n    mapping(address => mapping(uint256 => bool)) public credentialAccess;\r\n    uint256 public credentialCounter;\r\n    address public admin;\r\n\r\n    modifier onlyAdmin() {\r\n        require(msg.sender == admin, \"Only admin can perform this action\");\r\n        _;\r\n    }\r\n\r\n    modifier onlyRegistered() {\r\n        require(registeredAddresses[msg.sender], \"Unauthorized address\");\r\n        _;\r\n    }\r\n\r\n    modifier onlyIssuer(uint256 credentialId) {\r\n        require(\r\n            credentials[credentialId].issuer == msg.sender,\r\n            \"Only issuer can perform this action\"\r\n        );\r\n        _;\r\n    }\r\n\r\n    modifier onlyAuthorizedUser(uint256 credentialId) {\r\n        require(\r\n            credentials[credentialId].issuer == msg.sender ||\r\n            credentialAccess[msg.sender][credentialId],\r\n            \"Unauthorized user\"\r\n        );\r\n        _;\r\n    }\r\n\r\n    event CredentialRegistered(uint256 credentialId);\r\n    event CredentialUpdated(uint256 credentialId);\r\n    event CredentialAccessGranted(uint256 credentialId, address user);\r\n    event CredentialAccessRevoked(uint256 credentialId, address user);\r\n\r\n    constructor() {\r\n        admin = msg.sender; // Set the admin address during contract deployment\r\n    }\r\n\r\n    function registerAddress(address user) public onlyAdmin {\r\n        registeredAddresses[user] = true; // Allow the admin to register an address\r\n    }\r\n\r\n    function unregisterAddress(address user) public onlyAdmin {\r\n        registeredAddresses[user] = false; // Allow the admin to unregister an address\r\n    }\r\n\r\n    function registerCredential(\r\n        string memory credentialType,\r\n        string memory degreeName,\r\n        string memory university,\r\n        string memory graduationDate,\r\n        string memory licenseNumber,\r\n        string memory permanentAddress,\r\n        string memory doctorName // Added doctor's name parameter\r\n    ) public onlyRegistered returns (uint256) {\r\n        credentialCounter++;\r\n        Credential memory newCredential = Credential(\r\n            credentialCounter,\r\n            credentialType,\r\n            degreeName,\r\n            university,\r\n            graduationDate,\r\n            licenseNumber,\r\n            true,\r\n            msg.sender,\r\n            permanentAddress,\r\n            doctorName // Set the doctor's name\r\n        );\r\n        credentials[credentialCounter] = newCredential;\r\n        emit CredentialRegistered(credentialCounter);\r\n        return credentialCounter;\r\n    }\r\n\r\n    function updateCredentialValidity(uint256 credentialId, bool isValid)\r\n        public\r\n        onlyRegistered\r\n    {\r\n        credentials[credentialId].isValid = isValid;\r\n        emit CredentialUpdated(credentialId);\r\n    }\r\n\r\n    function grantCredentialAccess(uint256 credentialId, address user)\r\n        public\r\n        onlyIssuer(credentialId)\r\n    {\r\n        credentialAccess[user][credentialId] = true;\r\n        emit CredentialAccessGranted(credentialId, user);\r\n    }\r\n\r\n    function revokeCredentialAccess(uint256 credentialId, address user)\r\n        public\r\n        onlyIssuer(credentialId)\r\n    {\r\n        delete credentialAccess[user][credentialId];\r\n        emit CredentialAccessRevoked(credentialId, user);\r\n    }\r\n\r\n    function verifyLicense(string memory licenseNumber)\r\n        public\r\n        view\r\n        returns (bool)\r\n    {\r\n        for (uint256 i = 1; i <= credentialCounter; i++) {\r\n            if (\r\n                keccak256(bytes(credentials[i].licenseNumber)) ==\r\n                keccak256(bytes(licenseNumber))\r\n            ) {\r\n                return credentials[i].isValid;\r\n            }\r\n        }\r\n        return false;\r\n    }\r\n\r\n    // Function to fetch all the certificates issued by an institution\r\n    function getAllCertificates(address institution)\r\n        public\r\n        view\r\n        returns (uint256[] memory)\r\n    {\r\n        uint256[] memory certificateIds = new uint256[](credentialCounter);\r\n        uint256 count = 0;\r\n        for (uint256 i = 1; i <= credentialCounter; i++) {\r\n            if (credentials[i].issuer == institution) {\r\n                certificateIds[count] = i;\r\n                count++;\r\n            }\r\n        }\r\n        uint256[] memory result = new uint256[](count);\r\n        for (uint256 i = 0; i < count; i++) {\r\n            result[i] = certificateIds[i];\r\n        }\r\n        return result;\r\n    }\r\n}\r\n",
  "sourcePath": "F:\\SELF\\BlockChain\\NodeServer\\truffle\\contracts\\CredentialValidationV3.sol",
  "compiler": {
    "name": "solc",
    "version": "0.8.19+commit.7dd6d404.Emscripten.clang"
  },
  "schemaVersion": "3.4.13",
  "updatedAt": "2023-05-27T09:44:51.509Z",
  "networkType": "ethereum",
  "devdoc": {
    "kind": "dev",
    "methods": {},
    "version": 1
  },
  "userdoc": {
    "kind": "user",
    "methods": {},
    "version": 1
  }
}